:100000000200B380438C248D25E5254524600280C1
:10001000028010E52524FFF525E52434FFF524C2F0
:10002000908002D29030CF02800280DDC2CF30B605
:10003000028002800675200075210130B70280021F
:100040008005E4F520F5212280BB8051E4F520F500
:10005000217590FE75CB0075CA0053C8FCD2ADD295
:10006000AFD2CAE521B40107E520B40002800280C6
:10007000097C067D1112000380077C0A7D1C12009A
:100080000330B6028002800675200075210130B76A
:100090000280028005E4F520F52180C72280ADE4CE
:1000A000F5D075812678207A06F608DAFC12004A27
:0600B00002000002009FA7
:00000001FF
