:10000000020058898288838B00EC4D6036E4E0F66C
:1000100008A31DBDFFF31C80F0B800118B00EC4D50
:100020006021E7F609081DBDFFF41C80F189828874
:10003000838B00EC4D600CE493F608A31DBDFFF329
:100040001C80F022E4F5D075814278207A22F608EF
:0B005000DAFC12013302000002004441
:10010000424F48444F4B795054434542414A494538
:100110004B43414844504345504745454275348020
:10012000108D998D418000309902800280F9C2992A
:100130002280EE020244780179007A007B227D0C55
:100140007C001200197801790C7A007B2E7D0A7CE4
:1001500000120019780179167A007B387D097C003D
:10016000120019758780758920D28E758DFDE4F592
:1001700020F521E52124F4E5206480347F500280BD
:10018000028002802C74222521F987E07598507432
:10019000222521F9870512011F0521E5217002059D
:1001A00020E52124F4E5206480347F500280028021
:1001B000D47D0A12011FE4F520F521E52124F6E59E
:1001C000206480347F500280028002802C742E25AF
:1001D00021F987E0759850742E2521F987051201C1
:1001E0001F0521E52170020520E52124F6E52064A4
:1001F00080347F5002800280D47D0A12011FE4F512
:1002000020F521E52124F7E5206480347F50028029
:10021000028002802C74382521F987E0759850748B
:10022000382521F9870512011F0521E521700205F6
:1002300020E52124F7E5206480347F50028002808D
:07024000D480FE220201360A
:00000001FF
