:10000000020058898288838B00EC4D6036E4E0F66C
:1000100008A31DBDFFF31C80F0B800118B00EC4D50
:100020006021E7F609081DBDFFF41C80F189828874
:10003000838B00EC4D600CE493F608A31DBDFFF329
:100040001C80F022E4F5D075812B78207A0BF6081D
:0B005000DAFC12010A0200000200446A
:10010000C0F9A4B0999282F88090020260780179D7
:10011000007A007B217D0A7C0012001975A092757F
:100120002000E5202438500280028002800E8000EA
:100130000520E52024385002800280F275A09975D0
:100140002000E5202438500280028002800E8000CA
:100150000520E52024385002800280F275A08275C7
:100160002000E5202438500280028002800E8000AA
:100170000520E52024385002800280F275A0B07579
:100180002000E5202438500280028002800E80008A
:100190000520E52024385002800280F275A0F87511
:1001A0002000E5202438500280028002800E80006A
:1001B0000520E52024385002800280F275A0A47545
:1001C0002000E5202438500280028002800E80004A
:1001D0000520E52024385002800280F275A0807549
:1001E0002000E5202438500280028002800E80002A
:1001F0000520E52024385002800280F275A0F975B0
:100200002000E5202438500280028002800E800009
:100210000520E52024385002800280F275A09075F8
:100220002000E5202438500280028002800E8000E9
:100230000520E52024385002800280F275A0C075A8
:100240002000E5202438500280028002800E8000C9
:100250000520E52024385002800280F202011C2291
:0302600002010D8B
:00000001FF
