:1000000002008AE5836003E49322A882E622E58366
:100010006004E4938003A882E6F822E5836004E4A8
:10002000938003A882E6F922E5836004E4938003C9
:10003000A882E6FA22E5836004E4938003A882E6BE
:10004000FB22E5836004E4938003A882E6FC22E5BA
:10005000836004E4938003A882E6FD22E5836004C4
:10006000E4938003A882E6FE22E5836004E49380A3
:1000700003A882E6FF22E4F5D075812878207A086B
:0D008000F608DAFC120345020000020076CB
:10010000302E3134323800302E3238353700302E30
:100110003432383500302E3537313400302E373117
:10012000343200302E3835373100312E312836291F
:1001300000302E3128362900302E3828332900236C
:10014000232323232300302E3837352000302E334D
:1001500037352000302E3632352000302E31323502
:100160002000302E2837292000312E283629200063
:10017000302E2836292000302E2835292000302E18
:100180002834292000322E2833292000312E28330C
:10019000292000302E2833292000302E2832292013
:1001A00000302E2831292000312E37352020003014
:1001B0002E3735202000312E3235202000302E32CF
:1001C00035202000302E3820202000302E362020F0
:1001D0002000332E3520202000322E352020200014
:1001E000312E3520202000302E3520202000312EC9
:1001F0003420202000302E3420202000312E3220C8
:10020000202000302E3220202000343920202020D1
:10021000002D3920202020003438202020200032DA
:10022000382020202000313820202020002D3820A8
:1002300020202000323720202020002D37202020B1
:1002400020003536202020200033362020202000BA
:10025000313620202020002D36202020200034356B
:10026000202020200033352020202000323520207F
:10027000202000313520202020002D352020202076
:10028000003534202020200032342020202000316E
:100290003420202020002D34202020200036332040
:1002A00020202000313320202020002D332020204A
:1002B0002000343220202020003332202020200053
:1002C000313220202020002D322020202000323109
:1002D0002020202000313120202020002D3120201E
:1002E0002020003430202020200033302020202007
:1002F0000032302020202000313020202020003902
:1003000020202020200038202020202000372020FE
:1003100020202000362020202020003520202020F2
:100320002000342020202020003320202020200006
:1003300032202020202000312020202020003020CA
:100340002020202000021F4C75200375213E75805F
:100350008075A00175A000C2902094028002800FD9
:1003600075260075270175802B75A00375A00220E6
:10037000950280028025E580B480117522007523E6
:100380000975803975A00375A002800F752400756A
:10039000250975803975A00375A002209602800298
:1003A0008025E580B480117522007523087580389A
:1003B00075A00375A002800F75240075250875804F
:1003C0003875A00375A00220970280028025E58081
:1003D000B4801175220075230775803775A00375E9
:1003E000A002800F75240075250775803775A0035E
:1003F00075A002D290C2912094028002800F7526CF
:100400000075270275802D75A00375A00220950246
:1004100080028025E580B480117522007523067561
:10042000803675A00375A002800F7524007525061F
:1004300075803675A00375A0022096028002802583
:10044000E580B4801175220075230575803575A08F
:100450000375A002800F752400752505758035751C
:10046000A00375A00220970280028025E580B48059
:100470001175220075230475803475A00375A002E0
:10048000800F75240075250475803475A00375A050
:1004900002D291C2922094028002800F75260075CC
:1004A000270375802A75A00375A00220950280029B
:1004B0008025E580B4801175220075230375803393
:1004C00075A00375A002800F752400752503758043
:1004D0003375A00375A00220960280028025E58076
:1004E000B4801175220075230275803275A00375E2
:1004F000A002800F75240075250275803275A00357
:1005000075A00220970280028025E580B4801175D5
:10051000220075230175803175A00375A002800F3C
:1005200075240075250175803175A00375A002D270
:1005300092C2932094028002800F752600752704D2
:1005400075802F75A00375A0022095028002807E21
:1005500075800175A00175A0008520838521821218
:100560000003F58075A00375A00285208385218294
:10057000A3120003F58075A00375A0028520838572
:100580002182A3A3120003F58075A00375A0028544
:100590002083852182A3A3A3120003F58075A00305
:1005A00075A002852083852182A3A3A3A312000343
:1005B000F58075A00375A002852083852182A3A301
:1005C000A3A3A3120003F58075A00375A0022096D3
:1005D0000280028023E580B48010E4F522F52375C3
:1005E000803075A00375A002800EE4F524F5257512
:1005F000803075A00375A0022097028002802775C5
:10060000800175A00175A00075808075A00175A09E
:100610000075200375213EE4F522F523E4F524F569
:1006200025E4F526F527D293E527B40107E526B49E
:1006300000028003020CCBE52345227002800302F6
:100640000706E525452470028002800675200375A3
:10065000213EE525B40107E524B4000280028006AE
:10066000752003752137E525B40207E524B400029F
:1006700080028006752003752130E525B40307E567
:1006800024B4000280028006752003752129E52527
:10069000B40407E524B400028002800675200375C7
:1006A0002122E525B40507E524B400028002800676
:1006B00075200375211BE525B40607E524B4000267
:1006C00080028006752003752114E525B40707E52F
:1006D00024B400028002800675200375210DE525F3
:1006E000B40807E524B40002800280067520037573
:1006F0002106E525B40907E524B40002800280063E
:100700007520027521FFE523B40107E522B400023C
:1007100080030207D9E52545247002800280067512
:100720002003752137E525B40107E524B4000280D4
:10073000028006752003752130E525B40207E52403
:10074000B4000280028006752003752129E525B4D6
:100750000307E524B400028002800675200375219A
:1007600022E525B40407E524B40002800280067562
:10077000200375211BE525B40507E524B40002809C
:10078000028006752003752114E525B40607E524CB
:10079000B400028002800675200375210DE525B4A2
:1007A0000707E524B4000280028006752003752146
:1007B00006E525B40807E524B4000280028006752A
:1007C00020027521FFE525B40907E524B400028065
:1007D0000280067520027521F8E523B40207E522A0
:1007E000B4000280030208ACE525452470028002B3
:1007F0008006752003752130E525B40107E524B492
:10080000000280028006752003752129E525B402C7
:1008100007E524B4000280028006752003752122BA
:10082000E525B40307E524B40002800280067520A4
:100830000375211BE525B40407E524B400028002FA
:100840008006752003752114E525B40507E524B459
:1008500000028002800675200375210DE525B4068F
:1008600007E524B400028002800675200375210686
:10087000E525B40707E524B4000280028006752050
:10088000027521FFE525B40807E524B400028002C3
:1008900080067520027521F8E525B40907E524B422
:1008A0000002800280067520027521D5E523B4037D
:1008B00007E522B40002800302097FE52545247084
:1008C0000280028006752003752129E525B4010701
:1008D000E524B4000280028006752003752122E51C
:1008E00025B40207E524B4000280028006752003C7
:1008F00075211BE525B40307E524B40002800280BE
:1009000006752003752114E525B40407E524B40019
:10091000028002800675200375210DE525B40507C8
:10092000E524B4000280028006752003752106E5E7
:1009300025B40607E524B400028002800675200273
:100940007521FFE525B40707E524B4000280028085
:10095000067520027521F8E525B40807E524B400E2
:1009600002800280067520027521D5E525B40907AD
:10097000E524B40002800280067520027521C0E5DE
:1009800023B40407E522B400028003020A52E525DD
:100990004524700280028006752003752122E5251A
:1009A000B40107E524B400028002800675200375B7
:1009B000211BE525B40207E524B40002800280066D
:1009C000752003752114E525B40307E524B400025E
:1009D0008002800675200375210DE525B40407E526
:1009E00024B4000280028006752003752106E525E7
:1009F000B40507E524B40002800280067520027564
:100A000021FFE525B40607E524B400028002800634
:100A10007520027521F8E525B40707E524B4000226
:100A2000800280067520027521D5E525B40807E50A
:100A300024B40002800280067520027521C0E525DD
:100A4000B40907E524B4000280028006752002750F
:100A500021A4E523B40507E522B400028003020BBC
:100A600025E5254524700280028006752003752146
:100A70001BE525B40107E524B40002800280067559
:100A80002003752114E525B40207E524B400028093
:100A900002800675200375210DE525B40307E524C2
:100AA000B4000280028006752003752106E525B496
:100AB0000407E524B4000280028006752002752137
:100AC000FFE525B40507E524B40002800280067521
:100AD00020027521F8E525B40607E524B40002805C
:100AE0000280067520027521D5E525B40707E524A7
:100AF000B40002800280067520027521C0E525B48D
:100B00000807E524B40002800280067520027521E2
:100B1000A4E525B40907E524B40002800280067527
:100B2000200275218FE523B40607E522B400028078
:100B300003020BF8E525452470028002800675202B
:100B400003752114E525B40107E524B400028002F1
:100B5000800675200375210DE525B40207E524B450
:100B6000000280028006752003752106E525B40386
:100B700007E524B40002800280067520027521FF7B
:100B8000E525B40407E524B4000280028006752040
:100B9000027521F8E525B40507E524B400028002BA
:100BA00080067520027521D5E525B40607E524B435
:100BB0000002800280067520027521C0E525B40779
:100BC00007E524B40002800280067520027521A486
:100BD000E525B40807E524B40002800280067520EC
:100BE0000275218FE525B40907E524B400028002CF
:100BF0008006752002752173E523B40707E522B44A
:100C000000028003020CCBE525452470028002809F
:100C10000675200375210DE525B40107E524B40010
:100C20000280028006752003752106E525B40207BF
:100C3000E524B40002800280067520027521FFE5DC
:100C400025B40307E524B400028002800675200263
:100C50007521F8E525B40407E524B400028002807C
:100C6000067520027521D5E525B40507E524B400F5
:100C700002800280067520027521C0E525B40607B2
:100C8000E524B40002800280067520027521A4E5E7
:100C900025B40707E524B40002800280067520020F
:100CA00075218FE525B40807E524B4000280028091
:100CB00006752002752173E525B40907E524B40003
:100CC0000280028006752002752150E527B40207D4
:100CD000E526B40002800302136EE523452270026C
:100CE0008003020DA9E52545247002800280067567
:100CF000200375213EE525B40107E524B4000280F8
:100D00000280067520027521DCE525B40207E52482
:100D1000B40002800280067520027521C7E525B463
:100D20000307E524B40002800280067520027521C5
:100D3000ABE525B40407E524B40002800280067503
:100D40002002752196E525B40507E524B40002804C
:100D500002800675200275217AE525B40607E52490
:100D6000B4000280028006752002752157E525B483
:100D70000707E524B4000280028006752002752171
:100D80003BE525B40807E524B4000280028006751F
:100D9000200275212DE525B40907E524B400028061
:100DA000028006752002752111E523B40107E522B2
:100DB000B400028003020E7CE52545247002800207
:100DC0008006752003752137E525B40107E524B4B5
:100DD00000028002800675200375213EE525B402DD
:100DE00007E524B40002800280067520027521DC2C
:100DF000E525B40307E524B40002800280067520CF
:100E0000027521C7E525B40407E524B40002800279
:100E100080067520027521ABE525B40507E524B4ED
:100E2000000280028006752002752196E525B40631
:100E300007E524B400028002800675200275217A3D
:100E4000E525B40707E524B400028002800675207A
:100E500002752157E525B40807E524B40002800295
:100E6000800675200275213BE525B40907E524B409
:100E700000028002800675200275212DE523B40250
:100E800007E522B400028003020F4FE525452470D8
:100E90000280028006752003752130E525B4010724
:100EA000E524B4000280028006752003752137E531
:100EB00025B40207E524B4000280028006752003F1
:100EC00075213EE525B40307E524B40002800280C5
:100ED000067520027521DCE525B40407E524B4007D
:100EE00002800280067520027521C7E525B405073A
:100EF000E524B40002800280067520027521ABE56E
:100F000025B40607E524B40002800280067520029D
:100F1000752196E525B40707E524B4000280028018
:100F20000675200275217AE525B40807E524B4008A
:100F30000280028006752002752157E525B4090755
:100F4000E524B400028002800675200275213BE58D
:100F500023B40307E522B400028003021022E52532
:100F60004524700280028006752003752129E5253D
:100F7000B40107E524B400028002800675200375E1
:100F80002130E525B40207E524B400028002800682
:100F9000752003752137E525B40307E524B4000265
:100FA0008002800675200375213EE525B40407E51F
:100FB00024B40002800280067520027521DCE5253C
:100FC000B40507E524B4000280028006752002758E
:100FD00021C7E525B40607E524B400028002800697
:100FE0007520027521ABE525B40707E524B400029E
:100FF00080028006752002752196E525B40807E574
:1010000024B400028002800675200275217AE5254D
:10101000B40907E524B40002800280067520027539
:101020002157E523B40407E522B40002800302102F
:10103000F5E52545247002800280067520037521A0
:1010400022E525B40107E524B4000280028006757C
:101050002003752129E525B40207E524B4000280A8
:10106000028006752003752130E525B40307E524C9
:10107000B4000280028006752003752137E525B48F
:101080000407E524B4000280028006752003752160
:101090003EE525B40507E524B4000280028006750C
:1010A00020027521DCE525B40607E524B4000280A2
:1010B0000280067520027521C7E525B40707E524DF
:1010C000B40002800280067520027521ABE525B4CC
:1010D0000807E524B400028002800675200275210D
:1010E00096E525B40907E524B40002800280067560
:1010F000200275217AE523B40507E522B4000280B9
:10110000030211C8E525452470028002800675207F
:101110000375211BE525B40107E524B40002800214
:101120008006752003752122E525B40207E524B465
:10113000000280028006752003752129E525B4038D
:1011400007E524B400028002800675200375213073
:10115000E525B40407E524B400028002800675206A
:1011600003752137E525B40507E524B400028002A4
:10117000800675200375213EE525B40607E524B4F5
:101180000002800280067520027521DCE525B40787
:1011900007E524B40002800280067520027521C78D
:1011A000E525B40807E524B4000280028006752016
:1011B000027521ABE525B40907E524B400028002DD
:1011C0008006752002752196E523B40607E522B452
:1011D0000002800302129BE52545247002800280F4
:1011E00006752003752114E525B40107E524B40034
:1011F000028002800675200375211BE525B40207D5
:10120000E524B4000280028006752003752122E5E2
:1012100025B40307E524B40002800280067520038C
:10122000752129E525B40407E524B4000280028075
:1012300006752003752130E525B40507E524B400C3
:101240000280028006752003752137E525B4060764
:10125000E524B400028002800675200375213EE576
:1012600025B40707E524B400028002800675200239
:101270007521DCE525B40807E524B400028002806E
:10128000067520027521C7E525B40907E524B400D9
:1012900002800280067520027521ABE523B40707A2
:1012A000E522B40002800302136EE5254524700296
:1012B0008002800675200375210DE525B40107E540
:1012C00024B4000280028006752003752114E525F0
:1012D000B40207E524B4000280028006752003757D
:1012E000211BE525B40307E524B400028002800633
:1012F000752003752122E525B40407E524B4000216
:1013000080028006752003752129E525B40507E5CF
:1013100024B4000280028006752003752130E52583
:10132000B40607E524B40002800280067520037528
:101330002137E525B40707E524B4000280028006C2
:1013400075200375213EE525B40807E524B40002A5
:10135000800280067520027521DCE525B40907E5C9
:1013600024B40002800280067520027521C7E5279B
:10137000B40307E526B400028003021952E52345B1
:101380002270028002800675200375213EE523B499
:101390000107E522B400028003021460E52545241C
:1013A00070028002800675200375213EE525B40198
:1013B00007E524B4000280028006752003752137FA
:1013C000E525B40207E524B40002800280067520FA
:1013D00003752130E525B40307E524B4000280023B
:1013E0008006752003752129E525B40407E524B49A
:1013F000000280028006752003752122E525B405D0
:1014000007E524B400028002800675200375211BC5
:10141000E525B40607E524B40002800280067520A5
:1014200003752114E525B40707E524B40002800202
:10143000800675200375210DE525B40807E524B461
:10144000000280028006752003752106E525B40997
:1014500007E524B40002800280067520027521FF92
:10146000E523B40207E522B400028003021533E548
:1014700025452470028002800675200375213EE513
:1014800025B40107E524B40002800280067520031C
:10149000752130E525B40207E524B40002800280FE
:1014A00006752003752122E525B40307E524B40061
:1014B0000280028006752003752114E525B4040717
:1014C000E524B4000280028006752003752106E53C
:1014D00025B40507E524B4000280028006752002C9
:1014E0007521F8E525B40607E524B40002800280E2
:1014F000067520027521C0E525B40707E524B40070
:10150000028002800675200275218FE525B4080748
:10151000E524B4000280028006752002752150E5A2
:1015200025B40907E524B400028002800675200274
:10153000752126E523B40307E522B40002800302E7
:101540001606E52545247002800280067520037585
:10155000213EE525B40107E524B40002800280069F
:10156000752003752129E525B40207E524B400029E
:1015700080028006752003752114E525B40307E574
:1015800024B40002800280067520027521FFE52543
:10159000B40407E524B400028002800675200275B9
:1015A00021C0E525B40507E524B4000280028006C9
:1015B000752002752173E525B40607E524B4000201
:1015C00080028006752002752126E525B40707E50F
:1015D00024B40002800280067520027521CEE52524
:1015E000B40807E524B40002800280067520027565
:1015F0002188E525B40907E524B4000280028006AD
:10160000752002752134E523B40407E522B40002F5
:1016100080030216D9E525452470028002800675F4
:10162000200375213EE525B40107E524B4000280BE
:10163000028006752003752122E525B40207E52402
:10164000B4000280028006752003752106E525B4EA
:101650000307E524B400028002800675200275218C
:10166000C0E525B40407E524B400028002800675B5
:101670002002752150E525B40507E524B400028059
:101680000280067520027521F1E525B40607E524E0
:10169000B4000280028006752002752188E525B419
:1016A0000707E524B4000280028006752002752138
:1016B0001FE525B40807E524B40002800280067502
:1016C00020027521B9E525B40907E524B40002809C
:1016D000028006752002752149E523B40507E5223D
:1016E000B4000280030217ACE52545247002800295
:1016F000800675200375213EE525B40107E524B475
:1017000000028002800675200375211BE525B402C6
:1017100007E524B40002800280067520027521F8D6
:10172000E525B40307E524B4000280028006752095
:1017300002752173E525B40407E524B40002800294
:1017400080067520027521F1E525B40507E524B46E
:1017500000028002800675200275216CE525B40622
:1017600007E524B40002800280067520027521EA94
:10177000E525B40707E524B4000280028006752041
:1017800002752165E525B40807E524B4000280024E
:1017900080067520027521E3E525B40907E524B428
:1017A00000028002800675200275215EE523B406E2
:1017B00007E522B40002800302187FE52545247066
:1017C000028002800675200375213EE525B40107DD
:1017D000E524B4000280028006752003752114E51B
:1017E00025B40207E524B4000280028006752002B9
:1017F0007521C0E525B40307E524B400028002800A
:1018000006752002752126E525B40407E524B400F9
:101810000280028006752002752188E525B405073F
:10182000E524B40002800280067520027521EAE5F5
:1018300025B40607E524B400028002800675200264
:10184000752149E525B40707E524B400028002802C
:10185000067520027521B2E525B40807E524B40019
:101860000280028006752002752118E525B409075B
:10187000E524B4000280028006752002752181E50E
:1018800023B40707E522B400028003021952E525BC
:10189000452470028002800675200375213EE525EF
:1018A000B40107E524B400028002800675200375A8
:1018B000210DE525B40207E524B40002800280066C
:1018C00075200275218FE525B40307E524B40002D5
:1018D000800280067520027521CEE525B40407E557
:1018E00024B400028002800675200275211FE525C0
:1018F000B40507E524B40002800280067520027555
:101900002165E525B40607E524B4000280028006BF
:101910007520027521B2E525B40707E524B400025D
:101920008002800675200275210AE525B40807E5C6
:1019300024B4000280028006752002752142E5254C
:10194000B40907E524B40002800280067520027500
:10195000219DE527B40407E526B400028003021F99
:1019600048E5234522700280028018E52545247051
:10197000028002800875200175213F8006752003D2
:1019800075213EE523B40107E522B400028003027D
:101990001A56E525452470028002800675200175DF
:1019A000213FE525B40107E524B40002800280064A
:1019B000752003752137E525B40207E524B400023C
:1019C000800280067520017521E7E525B40307E54F
:1019D00024B4000280028006752001752193E5255C
:1019E000B40407E524B40002800280067520017566
:1019F00021BDE525B40507E524B400028002800678
:101A0000752002752103E525B40607E524B400021C
:101A100080028006752001752131E525B40707E5B0
:101A200024B4000280028006752001752100E5259E
:101A3000B40807E524B40002800280067520017511
:101A4000215BE525B40907E524B400028002800685
:101A50007520017521A1E523B40207E522B4000237
:101A60008003021B29E5254524700280028006754B
:101A7000200175213FE525B40107E524B40002806B
:101A8000028006752003752130E525B40207E524A0
:101A9000B4000280028006752003752137E525B465
:101AA0000307E524B4000280028006752001752139
:101AB00070E525B40407E524B400028002800675B1
:101AC00020017521E7E525B40507E524B40002806F
:101AD0000280067520017521F5E525B40607E52489
:101AE000B4000280028006752001752193E525B4BB
:101AF0000707E524B40002800280067520017521E5
:101B000007E525B40807E524B400028002800675C5
:101B100020017521BDE525B40907E524B400028044
:101B200002800675200175219AE523B40307E5229A
:101B3000B400028003021BFCE525452470028002EC
:101B4000800675200175213FE525B40107E524B421
:101B5000000280028006752003752129E525B40264
:101B600007E524B40002800280067520017521E09B
:101B7000E525B40307E524B4000280028006752041
:101B800003752137E525B40407E524B4000280027B
:101B900080067520017521AFE525B40507E524B45D
:101BA0000002800280067520017521CBE525B40670
:101BB00007E524B40002800280067520017521E744
:101BC000E525B40707E524B40002800280067520ED
:101BD0000175210EE525B40807E524B40002800252
:101BE000800675200175214DE525B40907E524B46B
:101BF000000280028006752001752193E523B4045C
:101C000007E522B400028003021CCFE525452470BD
:101C1000028002800675200175213FE525B4010789
:101C2000E524B4000280028006752003752122E5B8
:101C300025B40207E524B400028002800675200363
:101C4000752130E525B40307E524B4000280028045
:101C50000675200175218CE525B40407E524B40040
:101C60000280028006752003752137E525B405073B
:101C7000E524B40002800280067520017521C4E5C8
:101C800025B40607E524B400028002800675200111
:101C9000752170E525B40707E524B40002800280B1
:101CA00006752001752115E525B40807E524B40063
:101CB00002800280067520017521E7E525B4090739
:101CC000E524B400028002800675200175217EE5BE
:101CD00023B40507E522B400028003021DA2E52516
:101CE000452470028002800675200175213FE5259C
:101CF000B40107E524B40002800280067520037554
:101D0000211BE525B40207E524B400028002800609
:101D10007520017521D9E525B40307E524B4000237
:101D200080028006752001752169E525B40407E568
:101D300024B40002800280067520017521B6E525D5
:101D4000B40507E524B400028002800675200375FF
:101D50002137E525B40607E524B400028002800699
:101D6000752001752138E525B40707E524B4000284
:101D70008002800675200175211CE525B40807E561
:101D800024B4000280028006752001752154E525E7
:101D9000B40907E524B400028002800675200175AD
:101DA0002177E523B40607E522B400028003021E72
:101DB00075E5254524700280028006752001752195
:101DC0003FE525B40107E524B400028002800675D2
:101DD0002003752114E525B40207E524B400028030
:101DE000028006752003752129E525B40307E52443
:101DF000B4000280028006752003752130E525B409
:101E00000407E524B40002800280067520017521D4
:101E1000E0E525B40507E524B400028002800675DC
:101E200020017521FCE525B40607E524B4000280F5
:101E3000028006752003752137E525B40707E524E0
:101E4000B4000280028006752001752123E525B4C7
:101E50000807E524B4000280028006752001752180
:101E6000AFE525B40907E524B400028002800675B9
:101E70002001752170E523B40707E522B400028034
:101E800003021F48E5254524700280028006752064
:101E90000175213FE525B40107E524B40002800265
:101EA000800675200375210DE525B40207E524B4ED
:101EB0000002800280067520017521D2E525B40359
:101EC00007E524B400028002800675200175218593
:101ED000E525B40407E524B40002800280067520DD
:101EE000017521A8E525B40507E524B400028002A8
:101EF00080067520017521EEE525B40607E524B4BA
:101F000000028002800675200175212AE525B407AC
:101F100007E524B40002800280067520037521378E
:101F2000E525B40807E524B4000280028006752088
:101F300001752146E525B40907E524B400028002B5
:0F1F4000800675200175216202035722020348B3
:00000001FF
