:10000000020817020800E4F522F52375890175241A
:1000100000752501752602752704752808752910B5
:10002000752A20752B40752C80852490E523452268
:10003000700280030201BFE5282529F5908008059C
:1000400021E5217002052030B002800EE521240C4C
:10005000E5206480347E500480008004800080DFCE
:1000600030B0128000E52324FBE5226480347F4019
:1000700004800080048000801B0523E523700205B6
:1000800022E523B40407E522B4000280028005E4DF
:10009000F522F523E4F520F521E527252AF59080C2
:1000A000080521E5217002052030B002800EE5210F
:1000B0002418E5206480347C500480008004800093
:1000C00080DF30B0128000E52324FBE52264803419
:1000D0007F4004800080048000801B0523E523709E
:1000E000020522E523B40407E522B4000280028061
:1000F00005E4F522F523E4F520F521E526252BF589
:100100009080080521E5217002052030B002800EA4
:10011000E5212430E5206480347850048000800498
:10012000800080DF30B0128000E52324FBE52264EC
:1001300080347F4004800080048000801B0523E51C
:100140002370020522E523B40407E522B4000280EF
:10015000028005E4F522F523E4F520F521E52525C7
:100160002CF59080080521E5217002052030B002B1
:10017000800EE5212460E520648034705004800006
:100180008004800080DF30B0128000E52324FBE58E
:10019000226480347F4004800080048000801B053E
:1001A00023E52370020522E523B40407E522B40009
:1001B0000280028005E4F522F523E4F520F521E52F
:1001C00023B40107E522B400028003020356E525AB
:1001D0002526F59080080521E5217002052030B024
:1001E00002800EE5212418E5206480347C500480D0
:1001F000008004800080DF30B0128000E52324FB03
:10020000E5226480347F4004800080048000801BED
:100210000523E52370020522E523B40407E522B493
:10022000000280028005E4F522F523E4F520F521A3
:10023000E5272528F59080080521E5217002052095
:1002400030B002800EE5212418E5206480347C5013
:100250000480008004800080DF30B0128000E5233D
:1002600024FBE5226480347F400480008004800009
:10027000801B0523E52370020522E523B40407E56E
:1002800022B4000280028005E4F522F523E4F52083
:10029000F521E529252AF59080080521E521700240
:1002A000052030B002800EE5212418E5206480345A
:1002B0007C500480008004800080DF30B012800019
:1002C000E52324FBE5226480347F40048000800421
:1002D0008000801B0523E52370020522E523B4047A
:1002E00007E522B4000280028005E4F522F523E44C
:1002F000F520F521E52B252CF59080080521E52139
:100300007002052030B002800EE5212418E520643B
:1003100080347C500480008004800080DF30B01284
:100320008000E52324FBE5226480347F40048000C4
:1003300080048000801B0523E52370020522E5234D
:10034000B40407E522B4000280028005E4F522F53A
:1003500023E4F520F521E523B40207E522B40002E9
:1003600080030206657925879080080521E52170C4
:1003700002052030B002800EE521240CE5206480C7
:10038000347E500480008004800080DF30B0128012
:1003900000E52324FBE5226480347F400480008054
:1003A000048000801B0523E52370020522E523B4A9
:1003B0000407E522B4000280028005E4F522F5235B
:1003C000E4F520F5217926879080080521E5217044
:1003D00002052030B002800EE521240CE520648067
:1003E000347E500480008004800080DF30B01280B2
:1003F00000E52324FBE5226480347F4004800080F4
:10040000048000801B0523E52370020522E523B448
:100410000407E522B4000280028005E4F522F523FA
:10042000E4F520F5217927879080080521E52170E2
:1004300002052030B002800EE521240CE520648006
:10044000347E500480008004800080DF30B0128051
:1004500000E52324FBE5226480347F400480008093
:10046000048000801B0523E52370020522E523B4E8
:100470000407E522B4000280028005E4F522F5239A
:10048000E4F520F5217928879080080521E5217081
:1004900002052030B002800EE521240CE5206480A6
:1004A000347E500480008004800080DF30B01280F1
:1004B00000E52324FBE5226480347F400480008033
:1004C000048000801B0523E52370020522E523B488
:1004D0000407E522B4000280028005E4F522F5233A
:1004E000E4F520F5217929879080080521E5217020
:1004F00002052030B002800EE521240CE520648046
:10050000347E500480008004800080DF30B0128090
:1005100000E52324FBE5226480347F4004800080D2
:10052000048000801B0523E52370020522E523B427
:100530000407E522B4000280028005E4F522F523D9
:10054000E4F520F521792A879080080521E52170BE
:1005500002052030B002800EE521240CE5206480E5
:10056000347E500480008004800080DF30B0128030
:1005700000E52324FBE5226480347F400480008072
:10058000048000801B0523E52370020522E523B4C7
:100590000407E522B4000280028005E4F522F52379
:1005A000E4F520F521792B879080080521E521705D
:1005B00002052030B002800EE521240CE520648085
:1005C000347E500480008004800080DF30B01280D0
:1005D00000E52324FBE5226480347F400480008012
:1005E000048000801B0523E52370020522E523B467
:1005F0000407E522B4000280028005E4F522F52319
:10060000E4F520F521792C879080080521E52170FB
:1006100002052030B002800EE521240CE520648024
:10062000347E500480008004800080DF30B012806F
:1006300000E52324FBE5226480347F4004800080B1
:10064000048000801B0523E52370020522E523B406
:100650000407E522B4000280028005E4F522F523B8
:10066000E4F520F521E523B40307E522B400028078
:10067000030207FCE5252527F59080080521E521E3
:100680007002052030B002800EE5212418E52064B8
:1006900080347C500480008004800080DF30B01201
:1006A0008000E52324FBE5226480347F4004800041
:1006B00080048000801B0523E52370020522E523CA
:1006C000B40407E522B4000280028005E4F522F5B7
:1006D00023E4F520F521E5262528F590800805215D
:1006E000E5217002052030B002800EE5212418E5D6
:1006F000206480347C500480008004800080DF30DF
:10070000B0128000E52324FBE5226480347F40049E
:10071000800080048000801B0523E52370020522F1
:10072000E523B40407E522B4000280028005E4F565
:1007300022F523E4F520F521E529252BF590800805
:100740000521E5217002052030B002800EE521244C
:1007500018E5206480347C50048000800480008090
:10076000DF30B0128000E52324FBE5226480347F73
:100770004004800080048000801B0523E523700274
:100780000522E523B40407E522B4000280028005B7
:10079000E4F522F523E4F520F521E52A252CF59052
:1007A00080080521E5217002052030B002800EE5A9
:1007B000212418E5206480347C500480008004806B
:1007C0000080DF30B0128000E52324FBE522648046
:1007D000347F4004800080048000801B0523E523D3
:1007E00070020522E523B40407E522B4000280026A
:1007F0008005E4F522F523E4F520F52102002C2202
:10080000020006E4F5D075812D78207A0DF608DA1D
:0A081000FC120003020000020803BE
:00000001FF
