:100000000200CF806CE4F520F521E4F522F523E42D
:10001000F524F52575200085802175220085902323
:10002000AC22AD2312045B8A088B098C0A8D0BC0AD
:1000300008C009C00AC00B900100120099AC20ADA5
:100040002112045B12028E900104120099120346E1
:10005000900108120099120000D00BD00AD009D0EC
:100060000812028E1203EE8C248D258525A080A413
:10007000228092E5836010E493FA740193FB74028A
:1000800093FC740393FD22A882E6FA08E6FB08E6D7
:10009000FC08E6FD22E5836014E493F508740193FF
:1000A000F509740293F50A740393F50B22A882866E
:1000B0000808860908860A08860B22E4F5D07581AF
:1000C0002678207A06F608DAFC1200030200000205
:0200D00000BB73
:100100003F333333437F00003F800000EA54805385
:1001100007404207EB33EA33F860064303807A0076
:1001200022E4FAFBFCFDF822E50813544053078053
:100130004207E50933E50833F9600743098075088C
:100140000022E4F508F509F50AF50B22E8C313537C
:1001500007804FFAE803548053037F420322E8608C
:10016000C0EA6023EAB4010DED2401FDE43CFCE4A7
:100170003BFBE43AFAEAC313FAEB13FBEC13FCED96
:1001800013FD08EA70DE224B4C4D6095EB20E70F23
:10019000ED2DFDEC33FCEB33FBEA33FA1880ED2256
:1001A000E8C399501F24204008E9F8E4FAFBFCFD5D
:1001B0002208EAC313FAEB13FBEC13FCED13FDE882
:1001C000B501EE2224E05022E8F9E4F508F509F53E
:1001D0000AF50B2209C3E50813F508E50913F5092B
:1001E000E50A13F50AE50B13F50BE8B501E6226302
:1001F0000880C007C006C001C00012010C1201280F
:100200001201A0EF30E70DC3E49DFDE49CFCE49BEC
:10021000FBE49AFAEF30E615C3E4950BF50BE49591
:100220000AF50AE49509F509E49508F508ED250BAA
:10023000FDE50A3CFCE5093BFBE5083AFAE4FFEA88
:1002400030E70EFFC3E49DFDE49CFCE49BFBE49AD5
:10025000FA12015E12014CD000D001D006D0072264
:10026000EA650830E702EA22C3EA95087010EB95C8
:1002700009700BEC950A7006ED950B700122500485
:1002800074FF800274018AF030F7F2B2E722C007EF
:10029000C006C001C00012010C120128E4F50CF5E3
:1002A0000DF50EF50F7E07C3E50813F508E50913F4
:1002B000F509E50A13F50AE50B13F50B5014ED25C6
:1002C0000FF50FE50E3CF50EE50D3BF50DE50C3A8F
:1002D000F50CED2DFDEC33FCEB33FBEA33FADEC716
:1002E0007E118015C3E50C13F50CE50D13F50DE536
:1002F0000E13F50EE50F13F50FC3E50813F508E52A
:100300000913F509E50A13F50AE50B13F50B50146B
:10031000ED250FF50FE50E3CF50EE50D3BF50DE572
:100320000C3AF50CDEBEE829247AF8EF236207AA1E
:100330000CAB0DAC0EAD0F12015E12014CD000D013
:1003400001D006D00722C007C006C001C0001201BC
:100350000C12012812037A12015E12014CD000D057
:1003600001D006D00722C007C006C001C00012019C
:100370000C12012812037A0203F9E4F50CF50DF5CD
:100380000EF50FE96067E86064C3992477F8EF23FE
:1003900062077E20E50F250FF50FE50E33F50EE51C
:1003A0000D33F50DE50C33F50CC3EA9508402870C4
:1003B00013EB95094021700CEC950A401A7005ED7D
:1003C000950B4013ED950BFDEC950AFCEB9509FBA5
:1003D000EA9508FA430F01ED2DFDEC33FCEB33FBFE
:1003E000EA33FADEAFAA0CAB0DAC0EAD0F22C0079C
:1003F000C006C001C00012010CE8248220E70BE80F
:10040000246A20E738F824F8501FE4FAFBFCFDEFDB
:1004100030E70DC3E49DFDE49CFCE49BFBE49AFA09
:10042000D000D001D006D00722E8FE60E2ED2DFD1D
:10043000EC33FCEB33FBEA33FADEF280D2F4240136
:10044000FE60CCEAC313FAEB13FBEC13FCED13FDD7
:10045000DEF180BBED33FC9CFC8004EC33FB9BFBAA
:10046000FAC007C006C001C000EA5480FF30E70DA3
:10047000C3E49DFDE49CFCE49BFBE49AFA789612AD
:10048000015E12014CD000D001D006D007227C00C2
:0F049000E4FBFAC007C006C001C0007F0080DE99
:00000001FF
