:1000000002008AE5836003E49322A882E622E58366
:100010006004E4938003A882E6F822E5836004E4A8
:10002000938003A882E6F922E5836004E4938003C9
:10003000A882E6FA22E5836004E4938003A882E6BE
:10004000FB22E5836004E4938003A882E6FC22E5BA
:10005000836004E4938003A882E6FD22E5836004C4
:10006000E4938003A882E6FE22E5836004E49380A3
:1000700003A882E6FF22E4F5D075813078207A105B
:0D008000F608DAFC12010B02000002007607
:100100003132333435363738393000020A5C7524E1
:10011000FF7525FF7526FF7527FF7528FF7529FFD9
:10012000752AFF752BFF752CFF752DFF752E017538
:100130002F0075809775A00175A00075800775A0C8
:100140000175A000752000752116E521452070027B
:1001500080028003020368E521B41607E520B4009D
:1001600002800280097580A275A00375A002E521B6
:10017000B41507E520B40002800280097580AF75D0
:10018000A00375A002E521B41407E520B4000280A5
:100190000280097580AE75A00375A002E521B41335
:1001A00007E520B40002800280097580A475A003D1
:1001B00075A002E521B41207E520B4000280028098
:1001C000097580AF75A00375A002E521B41107E59C
:1001D00020B40002800280097580AB75A00375A071
:1001E00002E521B41007E520B40002800280097501
:1001F00080B475A00375A002E521B40F07E520B413
:100200000002800280097580B175A00375A002E527
:1002100021B40E07E520B40002800280097580B782
:1002200075A00375A002E521B40D07E520B4000216
:10023000800280097580A575A00375A002E521B430
:100240000C07E520B40002800280097580A275A029
:100250000375A002E521B40B07E520B4000280027B
:10026000800975800075A00375A002E521B40A0716
:10027000E520B40002800280097580A075A0037596
:10028000A002E521B40907E520B40002800280093C
:100290007580AC75A00375A002E521B40807E520C0
:1002A000B40002800280097580A575A00375A002C4
:1002B000E521B40707E520B40002800280097580BB
:1002C000AB75A00375A002E521B40607E520B400D4
:1002D00002800280097580B275A00375A002E52135
:1002E000B40507E520B40002800280097580A0757E
:1002F000A00375A002E521B40407E520B400028044
:100300000280097580AE75A00375A002E521B403D3
:1003100007E520B40002800280097580A475A0035F
:1003200075A002E521B40207E520B4000280028036
:10033000097580B175A00375A002E521B40107E538
:1003400020B400028002800975800075A00375A0AA
:1003500002E52124FFF521E52034FFF520E52145C4
:1003600020700280030201577580C075A00175A03E
:100370000075800675A00175A00075200075210824
:10038000E521452070028002800302045CE521B46F
:100390000807E520B400028002800975803075A04E
:1003A0000375A002E521B40707E520B4000280022E
:1003B000800975803075A00375A002E521B4060799
:1003C000E520B400028002800975803A75A00375AB
:1003D000A002E521B40507E520B4000280028009EF
:1003E00075803075A00375A002E521B40407E520EF
:1003F000B400028002800975803075A00375A002E8
:10040000E521B40307E520B400028002800975806D
:100410003A75A00375A002E521B40207E520B400F7
:10042000028002800975803075A00375A002E52165
:10043000B40107E520B400028002800975803075A0
:10044000A00375A002E52124FFF521E52034FFF586
:1004500020E52145207002800302038D7580CC7554
:10046000A00175A000752000752109E521452070C7
:10047000028002800302055EE521B40907E520B48D
:100480000002800280097580B275A00375A002E5A4
:1004900021B40807E520B40002800280097580A518
:1004A00075A00375A002E521B40707E520B400029A
:1004B000800280097580B175A00375A002E521B4A2
:1004C0000607E520B40002800280097580A375A0AC
:1004D0000375A002E521B40507E520B400028002FF
:1004E00080097580A575A00375A002E521B40407F5
:1004F000E520B40002800280097580A575A003750F
:10050000A002E521B40307E520B4000280028009BF
:100510007580A275A00375A002E521B40207E5204D
:10052000B40002800280097580A975A00375A0023D
:10053000E521B40107E520B400028002800975803E
:10054000B875A00375A002E52124FFF521E520344C
:10055000FFF520E521452070028003020478E4F5D0
:1005600020F521E52124F6E52034FF5002800280A9
:1005700003020A587580C775A00175A000E5212502
:100580002FF582E520352EF583120003F58075A046
:100590000375A002E521B40907E520B40002800339
:1005A000020A14E525B40907E524B400028002809C
:1005B000067524FF7525FF0525E5257002052475C0
:1005C00080C675A00175A000E52524FBE52434FF55
:1005D000400280028017E525252FF582E524352E7F
:1005E000F583120003F58075A00375A002E525B41C
:1005F0000515E524B400108000E521B40909E520C3
:10060000B400048000800580000209E775240075AD
:1006100025097580C675A00175A000E525252FF573
:1006200082E524352EF583120003F58075A003754D
:10063000A002E527B40907E526B40002800280067F
:100640007526FF7527FF0527E527700205267580AB
:10065000C475A00175A000E52724F7E52634FF4006
:100660000280028017E527252FF582E526352EF535
:1006700083120003F58075A00375A002E527B40975
:1006800015E526B400108000E525B40909E524B479
:10069000000480008002800EE521B40909E520B441
:1006A00000048000800580000209BA7526007527C5
:1006B000097580C475A00175A000E527252FF58276
:1006C000E526352EF583120003F58075A00375A08D
:1006D00002E529B40507E528B4000280028006750A
:1006E00028FF7529FF0529E529700205287580C3B3
:1006F00075A00175A000E52924FBE52834FF400220
:1007000080028017E529252FF582E528352EF5830F
:10071000120003F58075A00375A002E529B4091540
:10072000E528B400108000E527B40909E526B400E7
:100730000480008002800EE525B40909E524B40098
:100740000480008002800EE521B40909E520B40090
:100750000480008005800002098D75280075290934
:100760007580C375A00175A000E529252FF582E5E8
:1007700028352EF583120003F58075A00375A002BD
:10078000E52BB40907E52AB4000280028006752A29
:10079000FF752BFF052BE52B7002052A7580C175AF
:1007A000A00175A000E52B24F7E52A34FF40028064
:1007B000028017E52B252FF582E52A352EF58312C9
:1007C0000003F58075A00375A002E52BB40915E5BB
:1007D0002AB400108000E529B40909E528B4000412
:1007E00080008002800EE527B40909E526B40004E4
:1007F00080008002800EE525B40909E524B40004D8
:1008000080008002800EE521B40909E520B40004CF
:10081000800080058000020960752A00752B09752B
:1008200080C175A00175A000E52B252FF582E52A72
:10083000352EF583120003F58075A00375A002E53F
:100840002DB40207E52CB4000280028006752CFF4F
:10085000752DFF052DE52D7002052C7580C075A046
:100860000175A000E52D24FEE52C34FF4002800236
:100870008017E52B252FF582E52A352EF58312000A
:1008800003F58075A00375A002E52DB40215E52CD3
:10089000B400108000E52BB40309E52AB4000480FD
:1008A000008002800EE529B40909E528B40004801F
:1008B000008002800EE527B40909E526B400048013
:1008C000008002800EE525B40909E524B400048007
:1008D000008002800EE521B40909E520B4000480FF
:1008E0000080048000804C752A00752B097580C13A
:1008F00075A00175A000E52B252FF582E52A352E80
:10090000F583120003F58075A00375A002752C0015
:10091000752D097580C075A00175A000E52D252FE6
:10092000F582E52C352EF583120003F58075A003C2
:1009300075A002E4F522F523E52324FFE52234FF28
:10094000500280028002801880000523E523700297
:100950000522E52324FFE52234FF5002800280E8CF
:10096000E4F522F523E52324FFE52234FF5002803D
:10097000028002801880000523E52370020522E52D
:100980002324FFE52234FF5002800280E8E4F522B0
:10099000F523E52324FFE52234FF50028002800284
:1009A000801880000523E52370020522E52324FF3B
:1009B000E52234FF5002800280E8E4F522F523E5C9
:1009C0002324FFE52234FF50028002800280188039
:1009D000000523E52370020522E52324FFE52234E8
:1009E000FF5002800280E8E4F522F523E52324FF8E
:1009F000E52234FF50028002800280188000052327
:100A0000E52370020522E52324FFE52234FF50028E
:100A1000800280E8E4F522F523E52324FFE5223473
:100A2000FF500280028002801880000523E52370B9
:100A3000020522E52324FFE52234FF5002800280D4
:100A4000E80521E52170020520E52124F6E52034A2
:0F0A5000FF5002800302057402055E2202010EB0
:00000001FF
